:020000040000FA
:060000002FEF02F01200D8
:02002A000000D4
:04002C00FED80A0EE2
:10003000E66EE66A340EE66E6CEC01F0E552E552CF
:10004000E552C80EE66EDAEC01F0E552E6681FEC08
:1000500002F0E5528B68E6681FEC02F0E5520F0EE5
:10006000E66E040EE66EA70EE66EA6EC01F0E55213
:10007000E552E552870EE66E08EC02F0E552E668BE
:100080003DEC02F0E55250EC02F048EC02F00009C1
:1000900001E0FBD74DEC02F0C4500001606F616BD2
:1000A000C350626F636BE6683DEC02F0E5520F0EE1
:1000B000E66E0C0EE66EA70EE66EA6EC01F0E552BB
:1000C000E552E5528F0EE66E08EC02F0E552E66866
:1000D0003DEC02F0E55250EC02F048EC02F0000971
:1000E00001E0FBD74DEC02F0C4500001646F656B7A
:1000F000C350666F676BD89060376137D8906037B0
:100100006137D89060376137E00E6215026E036A7E
:10011000050ED89003320232E804FBE10001605181
:100120000210606F61510310616F1F0E6215626FE4
:10013000636BE00E6211626FE00E6011606FD89029
:1001400064376537D89064376537D890643765373A
:10015000E00E6615026E036A050ED8900332023275
:10016000E804FBE1000164510210646F6551031063
:10017000656F1F0E6615666F676BE00E6611666F22
:10018000E00E6411646FE00E82106A6F6B6BACA2BC
:10019000FED760C0E6FFF1EC01F0E552ACA2FED75D
:1001A00062C0E6FFF1EC01F0E552ACA2FED70D0E05
:1001B000E66EF1EC01F0E552ACA2FED764C0E6FFBA
:1001C000F1EC01F0E552ACA2FED766C0E6FFF1EC1F
:1001D00001F0E552ACA2FED70D0EE66EF1EC01F097
:1001E000E552ACA2FED7E668F1EC01F0E552ACA214
:1001F000FED76AC0E6FFF1EC01F0E552ACA2FED7F3
:100200000D0EE66EF1EC01F0E552ACA2FED70D0E3C
:10021000E66EF1EC01F0E5521DD74F0EAB16AC9A2D
:10022000CF0E9D16FFD700D01200C16A9268080E4B
:0A023000936E816A010E946E1200B5
:06023A002A0EF66E000E14
:10024000F76E000EF86E00010900F5506F6F09009F
:10025000F550706F03E16F6701D03DD00900F55094
:100260006A6F0900F5506B6F0900F5506C6F09005B
:100270000900F550E96E0900F550EA6E0900090021
:100280000900F5506D6F0900F5506E6F0900090007
:10029000F6CF71F0F7CF72F0F8CF73F06AC0F6FFC7
:1002A0006BC0F7FF6CC0F8FF00016D5302E16E53A5
:1002B00007E00900F550EE6E6D07F8E26E07F9D71A
:1002C00071C0F6FF72C0F7FF73C0F8FF00016F073F
:0802D000000E705BBFD71200A5
:0802D800D9CFE6FFDACFE6FF03
:1002E000E1CFD9FFE2CFDAFFAC6AAB6AFD0EDBA04B
:1002F00005D0AC88DBA404D0AC8E02D0DBB8AC84D3
:10030000DBA202D0AC8CAB8CDBA602D0AB8801D0D8
:10031000AB8ADBAC02D09D8A01D09D9ADBAE02D0C5
:100320009D8801D09D98FB0EDB50AF6EFC0EDBCF9D
:1003300003F003C002F0036A0250B06EAC8AAB8EC9
:0C034000E552E5CFDAFFE7CFD9FF12004D
:04034C00D9CFE6FF20
:10035000DACFE6FFE1CFD9FFE2CFDAFFC26AC16AA6
:10036000C06AFC0EDB407F0B3C0BC26EFB0EDB5009
:10037000C16EFC0EDB38F00B300BC112FD0EDB50F2
:10038000800BC06EFD0EDB380F0B070BC012FD0E8D
:10039000DB50040DF350380BC012FC0EDBAE03D063
:1003A0009E9C9D8CF28CC280E552E5CFDAFFE7CFB0
:0403B000D9FF12005F
:0C03B400FF0EE350056EEF0E01D0F30EBB
:1003C000E76EE72EE1EF01F00C0E046EE76AE72E10
:1003D000E7EF01F0042EE6EF01F0052EDFEF01F06C
:0203E000120009
:0E03E200D9CFE6FFDACFE6FFE1CFD9FFE2CFB9
:1003F000DAFFACAC04D0AC90000174B3AC80FD0E5D
:10040000DB50AD6EE552E5CFDAFFE7CFD9FF120042
:10041000D9CFE6FFDACFE6FFE1CFD9FFE2CFDAFFAF
:10042000C30EC214026EFD0EDB407F0B3C0B0210AC
:0E043000C26EE552E5CFDAFFE7CFD9FF12002A
:02043E00FF0EAF
:10044000E350056E480E01D04C0EE76EE72EFED746
:0E045000E76AE72EFED7052EF7D70000120050
:02045E0012EE9C
:1004600000F022EE00F0F86A019C1DEC01F052EC65
:0A04700002F016EC00F0FBD71200BA
:06047A00FF0EE350E84E06
:100480001200000000D000D000D0E82EFAD71200F1
:0A049000C250020B01E0010E120041
:06049A00C2909D9C1200BF
:0404A000C282120002
:0204A400120044
:020000040030CA
:0100010002FC
:0100060005F4
:00000001FF
