:020000040000FA
:0600000018EF02F01200EF
:02002A000000D4
:04002C00E6D80A0EFA
:10003000E66EE66A340EE66E55EC01F0E552E552E6
:10004000E552C80EE66EC3EC01F0E552E66808EC36
:1000500002F0E5528B68E66808EC02F0E5520F0EFC
:10006000E66E040EE66EA70EE66E8FEC01F0E5522A
:10007000E552E552870EE66EF1EC01F0E552E668D6
:1000800026EC02F0E55239EC02F031EC02F0000906
:1000900001E0FBD736EC02F0C45000016A6F6B6BD5
:1000A000C3506C6F6D6BE66826EC02F0E5520F0EE4
:1000B000E66E0C0EE66EA70EE66E8FEC01F0E552D2
:1000C000E552E5528F0EE66EF1EC01F0E552E6687E
:1000D00026EC02F0E55239EC02F031EC02F00009B6
:1000E00001E0FBD736EC02F0C45000016E6F6F6B7D
:1000F000C350706F716BD8906A376B37D8906A377E
:100100006B37D8906A376B37E00E6C15026E036A56
:10011000050ED89003320232E804FBE100016A5177
:1001200002106A6F6B5103106B6F1F0E6C156C6FB2
:100130006D6BE00E6C116C6FE00E6A116A6FD890F7
:100140006E376F37D8906E376F37D8906E376F37FE
:10015000E00E7015026E036A050ED890033202326B
:10016000E804FBE100016E5102106E6F6F51031045
:100170006F6F1F0E7015706F716BE00E7011706FE6
:10018000E00E6E116E6FACA2FED76AC0E6FFDAEC2D
:1001900001F0E552ACA2FED76CC0E6FFDAEC01F04C
:1001A000E552ACA2FED70D0EE66EDAEC01F0E55298
:1001B000ACA2FED76EC0E6FFDAEC01F0E552ACA2CD
:1001C000FED770C0E6FFDAEC01F0E552ACA2FED734
:1001D0000D0EE66EDAEC01F0E552ACA2FED70D0E84
:1001E000E66EDAEC01F0E55235D74F0EAB16AC9A5D
:1001F000CF0E9D16FFD700D01200C16A9268080E7C
:0C020000936E816A946A8B688268120019
:04020C002A0EF66E52
:10021000000EF76E000EF86E00010900F550656FD4
:100220000900F550666F03E1656701D03DD0090014
:10023000F550606F0900F550616F0900F550626F6D
:1002400009000900F550E96E0900F550EA6E090051
:1002500009000900F550636F0900F550646F09004B
:100260000900F6CF67F0F7CF68F0F8CF69F060C00B
:10027000F6FF61C0F7FF62C0F8FF0001635302E1BF
:10028000645307E00900F550EE6E6307F8E2640777
:10029000F9D767C0F6FF68C0F7FF69C0F8FF000133
:0A02A0006507000E665BBFD7120071
:0602AA00D9CFE6FFDACF18
:1002B000E6FFE1CFD9FFE2CFDAFFAC6AAB6AFD0E11
:1002C000DBA005D0AC88DBA404D0AC8E02D0DBB8B8
:1002D000AC84DBA202D0AC8CAB8CDBA602D0AB88AA
:1002E00001D0AB8ADBAC02D09D8A01D09D9ADBAEF7
:1002F00002D09D8801D09D98FB0EDB50AF6EFC0EA6
:10030000DBCF03F003C002F0036A0250B06EAC8A88
:0E031000AB8EE552E5CFDAFFE7CFD9FF120042
:02031E00D9CF35
:10032000E6FFDACFE6FFE1CFD9FFE2CFDAFFC26A1C
:10033000C16AC06AFC0EDB407F0B3C0BC26EFB0E39
:10034000DB50C16EFC0EDB38F00B300BC112FD0E22
:10035000DB50800BC06EFD0EDB380F0B070BC0129D
:10036000FD0EDB50040DF350380BC012FC0EDBAE5B
:1003700003D09E9C9D8CF28CC280E552E5CFDAFFC3
:06038000E7CFD9FF1200D7
:0A038600FF0EE350056EEF0E01D0EC
:10039000F30EE76EE72ECAEF01F00C0E046EE76A6B
:1003A000E72ED0EF01F0042ECFEF01F0052EC8EFBD
:0403B00001F0120046
:0C03B400D9CFE6FFDACFE6FFE1CFD9FF9A
:1003C000E2CFDAFFACAC04D0AC90000172B3AC80E9
:1003D000FD0EDB50AD6EE552E5CFDAFFE7CFD9FF7A
:0203E000120009
:0E03E200D9CFE6FFDACFE6FFE1CFD9FFE2CFB9
:1003F000DAFFC30EC214026EFD0EDB407F0B3C0B16
:100400000210C26EE552E5CFDAFFE7CFD9FF120046
:10041000FF0EE350056E480E01D04C0EE76EE72E3E
:10042000FED7E76AE72EFED7052EF7D700001200A9
:1004300012EE00F022EE00F0F86A019C06EC01F0EA
:0C0440003BEC02F016EC00F0FBD71200C1
:04044C00FF0EE3506C
:10045000E84E1200000000D000D000D0E82EFAD7FD
:02046000120088
:0A046200C250020B01E0010E12006F
:04046C00C2909D9C01
:02047000120078
:04047200C282120030
:02047600120072
:020000040030CA
:0100010002FC
:0100060005F4
:00000001FF
